:020000040800F2
:10000000380C0020ED010008272300080722000813
:1000100025230008710B0008A92E0008000000002D
:10002000000000000000000000000000C3230008E2
:10003000730B000800000000C1230008C52300085E
:10004000070200080702000807020008070200086C
:10005000070200080702000807020008070200085C
:10006000070200080702000807020008070200084C
:10007000070200080702000807020008070200083C
:10008000070200080000000007020008070200083D
:10009000070200080702000807020008070200081C
:1000A000070200080702000807020008070200080C
:1000B00007020008070200080702000807020008FC
:1000C00007020008070200080702000807020008EC
:1000D000070200089D2E000807020008070200081A
:1000E00007020008070200080702000807020008CC
:1000F00007020008070200080702000800000000CD
:1001000000000000070200080000000007020008CD
:1001100007020008000000000702000807020008AC
:10012000070200080702000807020008070200088B
:10013000070200080000000000000000070200089D
:10014000070200080702000800000000000000008D
:10015000000000000000000000000000000000009F
:10016000000000000000000000000000070200087E
:10017000070200080000000000000000000000006E
:10018000000000000702000800000000000000005E
:10019000000000000000000000000000000000005F
:1001A000000000000000000007020008070200082D
:1001B000070200080702000807020008000000000C
:1001C000000000000702000800000000000000001E
:1001D0000702000807020008DFF80CD000F0DCFA84
:1001E00000480047493A0008380C0020064880477C
:1001F00006480047FEE7FEE7FEE7FEE7FEE7FEE70C
:10020000FEE7FEE7FEE7FEE735240008D901000817
:100210002DE9F05F0546002092469B46884606463B
:10022000814640241BE0284641464746224600F0CE
:10023000B3F853465A46C01A914110D31146184696
:10024000224600F09AF82D1A67EB01084F46224625
:100250000120002100F091F817EB00094E41201E0B
:10026000A4F10104DFDC484631462A464346BDE896
:10027000F09F40EA01039B0703D009E008C9121F61
:1002800008C0042AFAD203E011F8013B00F8013B50
:10029000521EF9D27047D2B201E000F8012B491E7C
:1002A000FBD270470022F6E710B513460A46044613
:1002B0001946FFF7F0FF204610BD10B5044604E0D4
:1002C0000B7800F8013B03B1491C521EF8D22046BE
:1002D00010BD421C10F8011B0029FBD1801A704789
:1002E00010B5002200E0521C835C8C5CA34201D15B
:1002F000002BF8D1D8B2E1B2401A10BD034611F874
:10030000012B00F8012B002AF9D11846704770B56F
:10031000064602F0EBFD046805460A22002130463D
:1003200000F04AF82C6070BD00F0004230F0004050
:100330000AD0C10D01F56071C0F3160042EA015107
:10034000C20840071143704700200146704730B58E
:100350000B46014600202022012409E021FA02F583
:100360009D4205D303FA02F5491B04FA02F528441D
:10037000151EA2F10102F1DC30BD202A04DB203A77
:1003800000FA02F1002070479140C2F1200320FAE8
:1003900003F3194390407047202A04DB203A21FAE6
:1003A00002F00021704721FA02F3D040C2F120028E
:1003B00091400843194670472DE9F04791460F4692
:1003C00080460446002614F8015B2DB100F008FABF
:1003D0000068405DC007F6D12B2D02D02D2D18D01E
:1003E000641E4A463946204600F0FEF927B13968B6
:1003F000A14201D1C7F8008071054FF002040BD56E
:100400004042002803DD02F071FD0460A007BDE852
:10041000F08746F48066E4E70028F8DA02F066FD2B
:1004200004606FF00040F2E72DE9FE4F804681EA5C
:100430000300C00F0C46009021F0004123F000455E
:10044000B8EB0200A94105D24046214690461C4621
:100450000B46024623F00040104347D0270DC7F358
:100460000A00C3F30A510290401A019040286BDA47
:10047000C3F3130040F4801B0098924620B1002380
:10048000D2EB030A63EB0B0B01985946C0F1400213
:100490005046FFF772FF06460D4650465946019AF0
:1004A00000F08CF910EB08006141002487EA11523A
:1004B00084EAE7731A4340D0009A62B3019A012A92
:1004C0004FEA075215DC001B61EB02014FF00042BE
:1004D00002EA0752CDE90042001C41F58011324684
:1004E0002B4600F0DFF903B0BDE8F08F404621460F
:1004F000F9E7001B61EB0201001C41F580130018B5
:100500005B412018A2F5001747EB030140EAD570C4
:10051000B6196D4111E06D084FEA360645EAC0751F
:100520004FEA0752001B61EB0201001C41F58011EC
:1005300049084FEA30000019514132462B4603B0BA
:10054000BDE8F04F00F09FB9009801224000002361
:10055000D0EB020263EBE073009821464FEAE074AF
:10056000B8EB000061EB0401E9E783F000435BE7CF
:1005700081F0004158E72DE9FE4F81EA030404F0C1
:10058000004421F0004100944FF0000B23F00043A1
:1005900050EA01045ED052EA03045BD0C3F30A546C
:1005A000C1F30A552C44A4F2F3340194A0FB025485
:1005B000C1F3130141F48011C3F3130343F4801317
:1005C00001FB024400FB034E840A970A44EA81546B
:1005D00047EA8357A4FB076802958D0A05FB078548
:1005E0004FEA932C04FB0C542705029D4FEA065852
:1005F00047EA1637B5EB08056EEB070C870E920E2F
:1006000047EA811742EA8312A7FB0201B6EB0B010E
:1006100064EB00042B0D43EA0C335E1844EB1C50D2
:10062000DA465146E7FB0201C5F313044FEA0B33E8
:1006300043EA14534FEA0432019C43EA0603A4F14F
:100640000C040294009CCDE900B400F02BF903B037
:10065000BDE8F08F00200146F9E72DE9F04D81EA71
:10066000030404F0004B21F0004514464FF0000A4B
:1006700023F0004150EA050220D054EA01021DD0C7
:10068000C5F30A570246C5F31303C1F31300C1F3C0
:100690000A5640F4801543F48013A7EB0608101B9C
:1006A000D64608F2FD3873EB050002D308F10108C5
:1006B00001E092185B41B8F1000F03DA0020014617
:1006C000BDE8F08D00204FF48011064684460EE010
:1006D000171B73EB050705D3121B63EB05030643DA
:1006E0004CEA010C49084FEA300092185B4150EA8D
:1006F0000107EDD152EA030012D082EA040083EA36
:100700000501084305D0101BAB4106D2012200238E
:1007100006E000224FF0004302E06FF001025310A8
:100720001AEB06004CEB085110EB0A0041EB0B01F1
:10073000BDE8F04D00F0A7B8C1F30A52C1F31301B0
:1007400040F2FF3341F480119A4202DA0020014660
:10075000704740F233439A42A2F2334202DC5242E3
:10076000FFF71ABEFFF709BE30B5041E71F1000491
:1007700004DB4FF00044404264EB0101141E73F1AE
:10078000000405DB1C464FF00043524263EB0403B8
:10079000994208BF904230BD064C074D06E0E06824
:1007A00040F0010394E8070098471034AC42F6D3B8
:1007B000FFF716FD9C3C0008BC3C0008202A06DB25
:1007C000CB17203A41FA02F043EAE07306E041FA1F
:1007D00002F3D040C2F1200291400843194670470D
:1007E00000487047983C00082DE9F05F8246007889
:1007F000002715468B460AF10104B946302801D07E
:100800009DB113E014F8010B0127782803D0582874
:1008100001D045B10AE00DB1102D07D100271025F8
:1008200014F8010B02E0082500E00A250026B04676
:100830000EE005FB080005FB06F1012701EB104661
:100840001FFA80F8B6F5803F00D3B94614F8010BC3
:10085000294600F075F80028EBDABBF1000F05D04F
:100860000FB1641E00E05446CBF80040B9F1000F10
:1008700006D002F03BFB02210160C81EBDE8F09FDC
:1008800048EA0640FAE710B5141E73F1000408DACE
:10089000401C41F1000192185B411A4301D120F044
:1008A000010010BD2DE9F04D92469B4611B1B1FA01
:1008B00081F202E0B0FA80F220329046FFF75DFD4F
:1008C00004460F4640EA0A0041EA0B0153465A46E5
:1008D000084313D0114653EA010019D0C8F1400271
:1008E0005046FFF759FD05460E46504659464246CA
:1008F000FFF743FD084305D0012004E020463946B8
:10090000BDE8F08D0020054346EAE0762C433743EE
:100910000A986305E40AA0EB08000022FD0A44EAF5
:1009200047540A3002D500200146E9E701051019B5
:100930006941DDE9084500196941BDE8F04DA2E7CC
:100940003A2800D2303820F02002412A01D3A2F107
:100950003700884201D34FF0FF3070472DE9F14F47
:1009600004220021009803F015F983460422052192
:10097000009803F00FF98146BBF1000F64D0B9F184
:10098000000F61D002220A21009803F003F9FFF75B
:10099000BEFC824602220C21009803F0FBF8FFF710
:1009A000B6FC804602220E21009803F0F3F8FFF710
:1009B000AEFC074602221021009803F0EBF8FFF787
:1009C000A6FC064602221221009803F0E3F8FFF786
:1009D0009EFC054602221421009803F0DBF8FFF785
:1009E00096FC044635A0009902F060FA594636A0FC
:1009F00002F05CFA494637A002F058FA514637A097
:100A000002F054FA414638A002F050FA394639A0B3
:100A100002F04CFA31463AA002F048FA29463BA0CF
:100A200002F044FA21463CA002F040FA3DA15846AB
:100A3000FFF756FC88B13DA15846FFF751FC60B165
:100A4000FF2310223BA116E0584602F0C9FE48469B
:100A500002F0C6FE0020BDE8F88FB8F10C0F07DCED
:100A60001F2F05DA182E03DA3C2D01DA3C2C06DBA9
:100A7000FF230C2234A1384801F066FBE4E7FF2392
:100A80000B2236A1344801F05FFB59463648FFF788
:100A900035FC35484946401DFFF730FC3348C0E976
:100AA0000454C0E90276C0E900A8584602F098FE56
:100AB000484602F095FE0120CDE700005258323A38
:100AC00025730D0A00000000747970653A25730DD6
:100AD0000A00000069643A25730D0A0079656172A5
:100AE0003A25640D0A0000006D6F6E74683A256443
:100AF0000D0A0000646174653A25640D0A00000067
:100B0000686F75723A25640D0A0000006D696E7594
:100B100074653A25640D0A007365636F6E643A2547
:100B2000640D0A00434E425200000000564E4252ED
:100B3000000000004552524F522043415220545968
:100B400050450D0A000000004552524F52205449B2
:100B50004D450D0A00000000A405002054525545E3
:100B600020444154410D0A00800500208C050020DE
:100B7000FEE7704772B6FEE710B590F82530002109
:100B80000122022B03D00421C163012122E003686A
:100B90001C6824F00E041C60836C1C6824F48074B0
:100BA0001C6003681C6824F001041C6090F8443049
:100BB000046C03F01F0302FA03F36360D0E91334FB
:100BC0005C60436D33B11C6824F480741C60D0E910
:100BD00016345C6080F82520002280F82420084626
:100BE00010BD70B590F82520002401212346022A6B
:100BF00007D00422C26380F8251080F82430012435
:100C000029E00268156825F00E0515600268156870
:100C100025F001051560826C156825F48075156056
:100C200090F84420056C02F01F0201FA02F26A609B
:100C3000D0E913255560426D32B1156825F48075F1
:100C40001560D0E91625556080F8251080F824300D
:100C5000816B01B18847204670BD00002DE9F84F37
:100C600000230126DFF828C10F278AE006FA03F4E3
:100C700014EA01027ED023F003056544AA46D5F8A4
:100C800008909D074FEA157E07FA0EF505EA090B55
:100C90000095B0F1904F05D03E4DA84205D14FF0E0
:100CA00001081CE04FF0000819E03B4DA84202D1BA
:100CB0004FF0020813E0394DA84202D14FF003086B
:100CC0000DE0374DA84202D14FF0040807E0354D42
:100CD000A84202D14FF0050801E04FF0060808FADB
:100CE0000EF8D84526D1DFF8C080D8F8009029EA60
:100CF0000209C8F8009008F10408D8F8009029EA21
:100D00000209C8F80090DFF8A08008F10C08D8F8B4
:100D1000009029EA0209C8F80090A8F10408D8F860
:100D200000509543C8F80050009ADAF808509543EF
:100D3000CAF80850D0F800804FEA4309032202FAAB
:100D400009F248EA0208C0F80080DD0800EB8505DA
:100D5000AA46D5F820804FEA43794FEAD96907FAC5
:100D600009F528EA0508CAF82080C5689543C560DA
:100D7000456800E004E0A5434560846894438460CE
:100D80005B1C31FA03F27FF471AFBDE8F88F00000D
:100D9000000001400004004800080048000C004822
:100DA0000010004800140048000401402DE9F04FF5
:100DB000DFF82092002301260324A9F1040B85B05B
:100DC0000F2709F1040AABF1040EFAE006FA03F565
:100DD0002A407CD091F804C00CF0030CBCF1010F48
:100DE00002D0BCF1020F26D1D0F808C0CDF800C067
:100DF0004FEA430C04FA0CF8CDF810C0DDF800C03F
:100E00002CEA080CCDF800C0D1F80C80DDF810C039
:100E100008FA0CF8DDF800C048EA0C08C0F80880B1
:100E2000D0F804C02CEA050C0D79C5F300159D40DF
:100E300045EA0C0545600D79ED43AD070ED0C56858
:100E40004FEA430804FA08FC25EA0C05D1F808C06B
:100E50000CFA08FC4CEA050CC0F80CC00D7905F042
:100E60000305022D16D1DD0800EB850CCDF808C076
:100E7000DCF820805D074FEAD56C07FA0CF528EA0C
:100E800005080D6905FA0CF5DDF808C045EA080506
:100E9000CCF8205005684FEA430CCDF808C004FA9E
:100EA0000CFC25EA0C0591F804C00CF00308DDF8F1
:100EB00008C008FA0CF848EA0508C0F800804D6838
:100EC00015F4403F7CD0444DD5F860C000E077E099
:100ED0004CF0010CC5F860C02D6E23F0030C05F03A
:100EE000010500953D4D65440295AD684FEA837C50
:100EF0004FEA1C7807FA08FC25EA0C05B0F1904F80
:100F000006D0DFF8DCC0604505D14FF0010C20E0D1
:100F10004FF0000C1DE0DFF8CCC0604502D14FF06F
:100F2000020C16E0DFF8C0C0604502D14FF0030CA0
:100F30000FE0DFF8B8C0604502D14FF0040C08E0C4
:100F4000DFF8ACC0604502D14FF0050C01E04FF076
:100F5000060C0CFA08FC4CEA050C029DC5F808C00A
:100F6000D9F80050CC46D1F8048095435FEAC828F0
:100F700000D51543CCF80050DAF80050D446D1F82B
:100F8000048095435FEA882800D51543CCF80050CB
:100F9000DBF80050DC46D1F8048095435FEA8838DE
:100FA00000D51543CCF80050DEF80050F446D1F8D7
:100FB000048095435FEAC83800D51543CCF800504B
:100FC0005B1C0A6832FA03F57FF400AF05B0BDE898
:100FD000F08F0000080401400010024000000140B2
:100FE0000004004800080048000C004800100048B9
:100FF0000014004801488068704700000400002089
:1010000002488168426811448160704704000020F2
:1010100010B50024032000F083F80F2000F008F83A
:1010200008B1012401E000F025F8204610BD0000C1
:1010300070B50E4E05460024706898B14FF47A7171
:10104000B1FBF0F00A490968B1FBF0F000F072FD65
:1010500040B9102D06D200222946501E00F040F85B
:10106000356000E00124204670BD0000040000202F
:10107000100000200A4882B0016E41F001010166B3
:10108000016E01F001010091816D41F08051816597
:10109000806D00F08050009002B000F0B1B8000008
:1010A0000010024000280DDB00F01F0201219140DA
:1010B0004009800000F1E020C0F88011BFF34F8F9D
:1010C000BFF36F8F7047002809DB00F01F0201217A
:1010D00091404009800000F1E020C0F80011704705
:1010E000F0B40E4B1B680C46C3F30223C3F1070593
:1010F000042D00D90425191D072901D2002300E081
:10110000DB1E012606FA05F1491E214099409E404A
:10111000761E16403143F0BC01F0D8BE0CED00E065
:10112000064900F0070208684FF6FF03184040EA3E
:101130000220034A10430860704700000CED00E0F5
:101140000000FA052B492C4B0A6832214A432B49EF
:1011500040B1B0F5007F086829D020F4C06040F4A9
:1011600080602CE00868C0F34120022804D051F8C8
:10117000800F20F4807022E0D1F8800020F480708D
:10118000C1F88000086820F4C06040F40070086076
:10119000B2FBF3F0401C00E0401E4A69520501D545
:1011A0000028F9D1486940050AD503207047C0F3EB
:1011B0004120022806D051F8800F40F4807008606A
:1011C00000207047D1F8800040F48070C1F88000A2
:1011D000086820F4C06040F400700860B2FBF3F0CF
:1011E000401C00E0401E4A695205DBD50028F9D1B9
:1011F000D8E700001000002040420F0000700040BF
:101200000248816841F4804181607047007000406D
:101210002DE9F8430446006800269D4D00035ED585
:10122000A86D0027C00008D4A86D40F08050A865C4
:10123000A86D012700F080500090DFF85892D9F88F
:10124000001041F48071C9F80010FFF7D3FE80460A
:1012500006E000BFFFF7CEFEA0EB080002282BD867
:10126000D9F80000C005F5D5D5F8900010F440700D
:1012700014D0216C814211D0D5F89000D5F890108F
:1012800020F4407041F48031C5F89010D5F89010EA
:1012900021F48031C5F89010C5F89000C00711D036
:1012A000FFF7A8FE804641F2883907E0FFF7A2FE6B
:1012B000A0EB0801494501D903260BE0D5F89000C1
:1012C0008007F3D5D5F89000216C20F440700843D6
:1012D000C5F890001FB1A86D20F08050A865207857
:1012E000C00707D0D5F88800616820F003000843E4
:1012F000C5F888002078800707D5D5F88800A16850
:1013000020F00C000843C5F888002078400707D576
:10131000D5F88800E16820F030000843C5F888005F
:101320002078000707D5D5F88800216920F0C00093
:101330000843C5F888002078800607D5D5F88800CE
:10134000616920F440600843C5F8880020784006B1
:1013500007D5D5F88800A16920F440500843C5F8A6
:1013600088002078000607D5D5F88800E16920F4C8
:1013700040400843C5F888002088C00507D5D5F847
:101380008800216A20F440300843C5F8880020888E
:10139000800507D5D5F88800616A20F4402008430D
:1013A000C5F88800208840050FD5D5F88800A16AC7
:1013B00020F440100843C5F88800A06AB0F5801FEB
:1013C00003D1E86840F48010E860208800050FD55C
:1013D000D5F88800E16A20F440000843C5F8880089
:1013E000E06AB0F5800F03D1E86840F48010E8604F
:1013F0002088C0040FD5D5F88800216B20F04070FC
:101400000843C5F88800206BB0F1807F03D1E868FD
:1014100040F48010E86020884FF0006180040ED511
:10142000D5F88800626B20F040601043C5F8880052
:10143000606B884203D1E86840F48010E86020883F
:1014400040040ED5D5F88800A26B20F04060104310
:10145000C5F88800A06B884203D1E86840F480108A
:10146000E860208800040FD5D5F88800E16B20F0F3
:1014700040500843C5F88800E06BB0F1805F03D1AD
:10148000E86840F48030E8603046BDE8F88300004A
:1014900000100240007000402DE9F0470E460500A4
:1014A0004FF0000725D0DFF8AC81D8F8000000F03D
:1014B0000F00B0420CD2D8F8001021F00F013143D8
:1014C000C8F80010D8F8000000F00F00B04210D1AA
:1014D0002968614CC80741F2883A5AD06868DFF839
:1014E0007C91032808D0022820682DD040050028D0
:1014F0002CDB0120BDE8F08720688001F9D5E06889
:1015000000F00302E068C0F30310401C032A19D066
:10151000534A00BFB2FBF0F0E268C2F30622504328
:10152000E268C2F34162521C5200B0FBF2F048453F
:1015300017D9A06810F0F00F0CD0880711D5A86853
:1015400040B10EE0474AE5E78003D0E700F0B6F887
:10155000484506D9A06820F0F00040F08000A06067
:101560008027A068696820F003000843A060FFF7A7
:1015700041FD814606E000BFFFF73CFDA0EB0901FD
:1015800051453AD8A068696800F00C00B0EB810FB3
:10159000F2D12868810714D5400703D5A06840F42C
:1015A000E060A0602878000705D5A06820F46050AE
:1015B00040F4E060A060A068A96820F0F000084353
:1015C00004E0802F03D1A06820F0F000A060D8F8DC
:1015D0000010404601F00F01B14216D9016821F018
:1015E0000F0131430160FFF705FD074607E000BF2B
:1015F000FFF700FDC11B514501D903207AE7D8F858
:10160000000000F00F00B042F2D12878400705D565
:10161000A068E96820F4E0600843A060287800072B
:1016200006D5A068296920F4605040EAC100A06096
:1016300000F044F8A1680C4AC1F30311515C01F0B9
:101640001F01C8400949086009480068BDE8F04723
:10165000FFF7EEBC002002400010024000B4C404BA
:101660000024F40000127A00FE3B00081000002065
:10167000040000200548064900688968054AC1F34E
:101680000221515C01F01F01C8407047100000208A
:10169000001002400E3C00080548064900688968B1
:1016A000054AC1F3C221515C01F01F01C8407047D7
:1016B00010000020001002400E3C0008184910B530
:1016C0008868C0F381021748012A0BD08A6843104A
:1016D000C2F38102022A06D08A68C2F38102032A79
:1016E00003D0002010BD184610BDCA6802F00304E4
:1016F000CA68C2F30312521C032C02D0B0FBF2F0F2
:1017000001E0B3FBF2F0CA68C968C2F30622504395
:10171000C1F34161491C4900B0FBF1F010BD00006C
:10172000001002400024F4002DE9F84304007AD0B0
:101730002078FA4DC00747D0A868E96800F00C008F
:1017400001F003010C2802D0082817D001E003297A
:1017500014D06068B0F5803F17D0B0F5A02F28688E
:1017600017D020F480302860286820F4802028607A
:101770006068E0B1FFF73EFC064614E0286880038D
:1017800022D560680028D2D01EE0286840F480305E
:10179000EDE740F480202860F7E700BFFFF72AFC60
:1017A000801B642870D828688003F7D50CE0FFF709
:1017B00021FC064605E000BFFFF71CFC801B6428E7
:1017C000F0D828688003F7D4207880074CD5A86823
:1017D000E96800F00C0001F003010C2802D0042895
:1017E0000DD001E002290AD0E068002828682BD03B
:1017F00040F480702860FFF7FDFB064619E028687A
:10180000400502D5E068002891D06868217C20F06E
:10181000FE4040EA01606860C1480068FFF708FCCC
:10182000002800D120E076E1FFF7E4FB801B0228CE
:10183000B8D828684005F7D56868217C20F0FE40BC
:1018400040EA016068600FE020F480702860FFF7D4
:10185000D1FB064605E000BFFFF7CCFB801B02284A
:10186000A0D828684005F7D42078000729D56069FA
:101870000028D5F8940013D040F00100C5F894007A
:10188000FFF7B8FB064606E090E000BFFFF7B2FBAB
:10189000801B022886D8D5F894008007F6D510E082
:1018A00020F00100C5F89400FFF7A4FB064604E011
:1018B000FFF7A0FB801B022878D8D5F8940080079A
:1018C000F6D42078400761D5A86D0026C00008D462
:1018D000A86D40F08050A865A86D012600F08050EA
:1018E000009090480168C90511D40168804641F410
:1018F00080710160FFF77EFB074604E0FFF77AFB8B
:10190000C01B022852D8D8F80000C005F6D5A06840
:10191000012815D00528D5F8900016D020F0010038
:10192000C5F89000D5F8900020F00400C5F89000AC
:10193000A06841F28838B8B1FFF75CFB07460EE0BB
:10194000D5F8900040F00100F0E740F00400C5F841
:101950009000F5E7FFF74EFBC11B414526D8D5F8AF
:1019600090008007F6D50CE0FFF744FB074604E043
:10197000FFF740FBC11B414518D8D5F89000800700
:10198000F6D41EB1A86D20F08050A865207880069E
:1019900029D5A0690028D5F8980013D040F001009F
:1019A000C5F89800FFF726FB064606E077E000BF83
:1019B000FFF720FB801B022877D8D5F89800800716
:1019C000F6D510E020F00100C5F89800FFF712FBF3
:1019D000064604E0FFF70EFB801B022865D8D5F809
:1019E00098008007F6D4E069F0B3A968C1F38101DB
:1019F000032961D00228286820F0807028600BD06D
:101A0000E86820F00300E860E86847490840E860BB
:101A1000FFF7F0FA04464BE0FFF7ECFA064604E065
:101A2000FFF7E8FA801B02283FD828688001F7D426
:101A3000F4E908016FF00F0202EB01110843218A5B
:101A40005204490802EB4151A26841EA02210843CD
:101A5000217D4FF07E42490802EB41610843217B22
:101A600040EAC160E96800E062E0304A11400843A2
:101A7000E860286840F080702860E86840F0807076
:101A8000E860FFF7B7FA044605E000BFFFF7B2FAD7
:101A9000001B022809D828688001F7D548E004E037
:101AA000FFF7A8FA001B022802D90320BDE8F8833B
:101AB00028688001F4D43BE00128F7D0E868226A66
:101AC00000F00301914226D1616A00F0F0020901A1
:101AD000103991421FD1A26A00F4FE41B1EB022FEE
:101AE00019D194F82C2000F07841B1EBC26F12D1DB
:101AF000218E00F4C00249084905A1F50011914268
:101B000009D194F8341000F0C06049084906A1F1E9
:101B1000007181420CD00120C8E700000010024093
:101B20000400002000700040FFFFEEFE0C809F01CB
:101B30000020BBE710B5401EB0F1807F01D301202B
:101B400010BD4FF0E02460610F21601701F0BEF975
:101B50000020A06107202061002010BD90F88010B7
:101B6000012918D0012180F880102421C0F88410A8
:101B700050F8641B0A680B6823F001030B6022F025
:101B800000510022026050F8643C1960202101627B
:101B9000027710467047022070477047704770B553
:101BA000044690F8800001281DD0012084F88000B0
:101BB0002420C4F8840020680568026822F001022D
:101BC00002602068826822F060620A4382602046D8
:101BD00000F038FC206805602020C4F88400002054
:101BE00084F8800070BD022070BD70B5044690F886
:101BF000800001281DD0012084F880002420C4F832
:101C0000840020680568026822F0010202602068F2
:101C1000826822F060420A438260204600F012FC93
:101C2000206805602020C4F88400002084F880002B
:101C300070BD022070BD7047704770B504001CD0A5
:101C40002420C4F884002068016821F001010160AB
:101C50002068002505602068456020688560204672
:101C600000F0CEF9C4F88C50C4F88450C4F8885001
:101C700044F86C5F0020257570BD012070BD000028
:101C80000A4810B50068C069C04300070CD4074873
:101C9000FFF7D3FF054800F07DF9BDE8104016229C
:101CA0000349024800F00CBA10BD0000A405002052
:101CB000380000202DE9F04103680446D86919680E
:101CC0009A6840F60F0528424FF0000509D18606B4
:101CD0007ED501F0200602F080573E4378D0216F78
:101CE00027E1A94EA94F16400F40374370D0C707D0
:101CF00009D0CF0507D501271F62D4F88C3043F0F7
:101D00000103C4F88C3083070AD5D30708D02768AD
:101D100002233B62D4F88C3043F00403C4F88C30C7
:101D200043070AD5D30708D0276804233B62D4F8B9
:101D30008C3043F00203C4F88C3003070CD501F05B
:101D40002003334308D0266808233362D4F88C304C
:101D500043F00803C4F88C3003050BD54B0109D5BB
:101D600026684FF400633362D4F88C3043F02003CC
:101D7000C4F88C30D4F88C30002B3AD0800609D5CA
:101D800001F0200002F08051084303D0216F09B117
:101D900020468847D4F88C0021688968490602D417
:101DA00010F0280F27D0204600F00CFC2068806837
:101DB00040061BD52068083050E8001F21F0400184
:101DC00040E80012002AF5D1E06F78B1704900E0D8
:101DD00017E08163E06FFEF704FF002809D0E06F91
:101DE000816B00E02046BDE8F04108472046FFF740
:101DF00047FFBDE8F0812046FFF742FFC4F88C5052
:101E0000F7E7E76E2026012F7ED1C7067CD5CF06E7
:101E10007AD51020186220688068400642D5E16FAC
:101E2000086840680004000CE3D0B4F85C208242EB
:101E3000DFD9A4F85E000868006880062BD420680B
:101E400050E8001F21F4807140E80012002AF6D10A
:101E50002068083050E8001F21F0010140E800121E
:101E6000002AF5D12068083050E8001F21F0400119
:101E700040E80012002AF5D1C4F88860E5662168C0
:101E800051E8000F20F0100041E80002002AF6D1CE
:101E9000E06FFEF771FEB4F85C00B4F85E10401A13
:101EA00081B22CE0B4F85C00B4F85E10401A81B244
:101EB000B4F85E0000289CD000299AD0226852E82D
:101EC000000F20F4907042E80003002BF6D12E4B57
:101ED000DB432068083050E8002F1A4040E8002714
:101EE000002FF6D1C4F88860E5662567226852E8BD
:101EF000000F20F0100042E80003002BF6D120462E
:101F0000FFF74BFE75E7FFE7C70209D5570207D574
:101F10004FF4801018622046BDE8F041FFF78CBEF8
:101F200003060AD501F0800302F40002134304D033
:101F3000616F00297FF456AF5BE7420611D54A0670
:101F40000FD52046016851E8002F22F0400241E8F9
:101F50000023002BF6D1C0F88460456700F052F9E9
:101F600047E7020206D54A0004D52046BDE8F04105
:101F7000FFF761BEC001C5D50029C3DA2046BDE820
:101F8000F041FFF70BBE000001000010200100042B
:101F9000B125000810B5040003D0D4F8840010B1B6
:101FA00007E0012010BD002084F88000204600F0EA
:101FB00041F82420C4F884002068016821F0010160
:101FC0000160204600F040FD0128EBD0A06A10B16E
:101FD000204600F059FA2068416821F490414160A0
:101FE0002068816821F02A0181602068016841F041
:101FF000010101602046BDE8104000F0A9BA0000D0
:1020000010B50068094988420FD10948016E21F4D2
:10201000804101664FF4C0614FF09040FEF71EFE14
:10202000BDE810402520FFF73DB810BD0038014045
:102030000010024010B598B00446142111A8FEF714
:1020400031F944216846FEF72DF91B492068884282
:1020500030D101200024CDE900046846FFF7D8F80C
:1020600008B1FEF787FD1548016E41F48041016615
:10207000016E01F480411691C16C41F00101C1640F
:10208000C06C11A900F0010016904FF4C0601190CF
:102090000220CDE912040720CDE914404FF0904012
:1020A000FEF784FE002211462520FFF719F82520AF
:1020B000FFF709F818B010BD0038014000100240C9
:1020C00030B4D0F88830202B20D1E1B1DAB190F8CB
:1020D0008030012B1AD0012380F880300023C366A2
:1020E0000B4C0368A3420BD05B681B0208D5046845
:1020F00054E8003F43F0806344E80035002DF6D1FA
:1021000030BC00F0DBBD012030BC70470220FBE793
:102110000080004010B5162207490848FFF7D0FF9D
:1021200006480068C1698906FCD40549884202D185
:1021300004490120086010BD38000020A4050020DB
:1021400000380140000000202DE9F8430446D0F893
:1021500084001F4616460D46202851D1DDB1D6B168
:1021600094F8800001284BD0012084F880004FF0C3
:102170000008C4F88C802120C4F884001834FEF7CD
:1021800039FFA6878146E68754F8100C183CB0F555
:10219000805F03D004E00120BDE8F883206920B10E
:1021A0002E46002584F8808010E00026FAE7802182
:1021B000204600F00FFEB8B9C6B116F8010B216831
:1021C0008862B4F85600401EA4F85600B4F85600D1
:1021D0004B464FF0000200970028E8D14FF0400135
:1021E000204600F0F7FD30B10320D5E735F8020BAB
:1021F000C0F30800E3E72020C4F884000020CBE708
:102200000220C9E77047FEE70FB500218DF80910DD
:102210008DF804100199016002994160BDF80C101D
:1022200001810FBD0FB4002110B518220391059153
:10223000069107910491089103A9FEF71AF810BCC2
:102240005DF814FB30B500231A46012403EB43016B
:1022500001EBC30100EB81015D1C4A7101F80C2BFD
:102260005B1C04C1082B41F8102B41F80C2C41F8E1
:10227000082C41F8042C81E83400E7DB30BD000075
:102280000D4808B5C16C41F00401C164C16C01F096
:1022900004010091C16C41F02001C164C16C01F0E6
:1022A00020010091C16C41F00101C164C06C00F0DB
:1022B0000100009008BD000000100240184810B551
:1022C000164901604FF416514160002181600C22D3
:1022D000C160C0E904128161C16101624162816231
:1022E000FFF758FE08B1FEF745FC00210C48FFF748
:1022F0007CFC08B1FEF73EFC00210948FFF74FFCCB
:1023000008B1FEF737FC0648FFF728FC002803D089
:10231000BDE81040FEF72EBC10BD000000380140A3
:10232000A4050020FEE7FEE72DE9FF5F07460EA8A3
:102330001C4C90E8600F6068002806DCFF23072231
:1023400019A11B48FFF700FF29E0002324E01946EC
:10235000384601F06DFBF0B103EB430000EBC30026
:1023600007EB800401A92046FDF7C8FF601D0DF1B1
:102370000901FDF7C3FF0020C4E908B00C34FF23B6
:1023800084E860070A220BA10948FFF7DDFE01205F
:1023900004B0BDE8F09F5B1C20688342D7DB0020BF
:1023A000F6E700001400002042555359210D0A00A1
:1023B000A405002053554343455353210D0A000003
:1023C00070477047FEF71CBE00B593B038216846D1
:1023D000FDF768FF14210EA8FDF764FF4FF40070AD
:1023E000FEF7B0FE0220C1010391402104910121BA
:1023F000CDE9080100900A21CDE90A1007900C9060
:102400000D906846FFF790F908B172B6FEE70F200D
:102410000E9003200F900020109011901290022136
:102420000EA8FFF739F8002801D072B6FEE713B006
:1024300000BD00000248016841F47001016070476E
:1024400088ED00E030B5416EB9B1026891689268DC
:10245000C1F342610B4B520F9C5CE50003F1080491
:10246000A25CB5FBF2F2A0F86A205A5C615CD20073
:10247000B2FBF1F1A0F8681030BD0121A0F86A109C
:10248000F8E70000EE3B000890F82810C90706D0D6
:1024900001684A68C36A22F400321A434A6090F81D
:1024A0002810890706D501684A68036B22F4803238
:1024B0001A434A6090F82810490706D501684A680F
:1024C000436B22F480221A434A6090F828100907CF
:1024D00006D501684A68836B22F400421A434A60B9
:1024E00090F82810C90606D501688A68C36B22F4E3
:1024F00080521A438A6090F82810890606D5016830
:102500008A68036C22F400521A438A6090F82810FB
:10251000490611D501684A68436C22F480121A43B7
:102520004A60416CB1F5801F06D101684A68836C2E
:1025300022F4C0021A434A6090F82810090606D512
:1025400001684A68C06C22F4002202434A60704766
:10255000F8B500260446C0F88C60FEF74BFD054632
:10256000206800686FF07E47000708D52B460022E0
:102570004FF400112046009700F02CFC60B9206851
:10258000006840070AD52B4600224FF48001204600
:10259000009700F01FFC08B10320F8BD2020C4F80C
:1025A0008400C4F8880044F86C6F00202675F8BDDC
:1025B00010B5806A0021A0F85E10A0F85610FFF751
:1025C0005FFB10BD10B5026852E8001F21F4907146
:1025D00042E80013002BF6D10E4B0268083252E895
:1025E000001F194042E80014002CF6D1C16E0129E9
:1025F00008D1016851E8002F22F0100241E80023C1
:10260000002BF6D12021C0F888100021C166016797
:1026100010BD0000FEFFFFEF10B5B0F86020D0F84D
:1026200088300168222B04D0886940F00800886156
:1026300010BD496A836D11401980816D891C8165C7
:10264000B0F85E10491EA0F85E10B0F85E100029C8
:10265000EED1026852E8001F21F4907142E80013A5
:10266000002BF6D10168083151E8002F22F0010259
:1026700041E80023002BF5D12021C0F8881000216B
:102680000167C26E012A02D0FFF744FD10BDC1668A
:10269000026852E8001F21F0100142E80013002BED
:1026A000F6D10168CA69D243D20601D410220A6267
:1026B000B0F85C10FFF771FA10BD00002DE9F0478B
:1026C0000446B0F860600068C569D0F800A0D0F892
:1026D0000880D4F88810222905D0816941F00801CA
:1026E0008161BDE8F087B4F868704FF0000963E0DD
:1026F0002068406AA16D30400880A06D801CA065F4
:10270000B4F85E00401EA4F85E002068C569690741
:1027100030D0E9070AD05FEACA5107D5012101622A
:10272000D4F88C0040F00100C4F88C00A8070BD549
:102730005FEAC87008D0216802200862D4F88C00D3
:1027400040F00400C4F88C0068070BD55FEAC8703D
:1027500008D0216804200862D4F88C0040F0020000
:10276000C4F88C00D4F88C0020B12046FFF788FA1A
:10277000C4F88C90B4F85E00F0B9216851E8000FFD
:1027800020F4807041E80002002AF6D1264A206831
:10279000083050E8001F114040E80013002BF6D12C
:1027A0002020C4F88800C4F87090E16E48460129E2
:1027B00023D02046FFF7AEFC0FB1A80698D4B4F89A
:1027C0005E0000288DD0B4F86810814289D9206855
:1027D000083050E8001F21F0805140E80012002A24
:1027E000F5D112482067206850E8001F41F0200111
:1027F00040E80012002AF6D173E7E066216851E84C
:10280000000F20F0100041E80002002AF6D12068F5
:10281000C169C943C90601D410210162B4F85C1032
:102820002046FFF7BAF9C7E7FEFFFFEF19260008B9
:1028300010B5B0F86020D0F888300168222B04D0A1
:10284000886940F00800886110BD496A1140826DB6
:102850001170816D491C8165B0F85E10491EA0F8A9
:102860005E10B0F85E100029EED1026852E8001F39
:1028700021F4907142E80013002BF6D10168083171
:1028800051E8002F22F0010241E80023002BF5D18E
:102890002021C0F8881000210167C26E012A02D0F1
:1028A000FFF738FC10BDC166026852E8001F21F036
:1028B000100142E80013002BF6D10168CA69D24327
:1028C000D20601D410220A62B0F85C10FFF765F955
:1028D00010BD00002DE9F0470446B0F860600068C4
:1028E000C569D0F800A0D0F80880D4F88810222953
:1028F00005D0816941F008018161BDE8F087B4F835
:1029000068704FF0000963E02068406AA16D3040B4
:102910000870A06D401CA065B4F85E00401EA4F8CD
:102920005E002068C569690730D0E9070AD05FEA10
:10293000CA5107D501210162D4F88C0040F0010092
:10294000C4F88C00A8070BD55FEAC87008D02168CE
:1029500002200862D4F88C0040F00400C4F88C0017
:1029600068070BD55FEAC87008D0216804200862A8
:10297000D4F88C0040F00200C4F88C00D4F88C002D
:1029800020B12046FFF77CF9C4F88C90B4F85E00C3
:10299000F0B9216851E8000F20F4807041E800028E
:1029A000002AF6D1264A2068083050E8001F11405E
:1029B00040E80013002BF6D12020C4F88800C4F8AA
:1029C0007090E16E4846012923D02046FFF7A2FB14
:1029D0000FB1A80698D4B4F85E0000288DD0B4F8E2
:1029E0006810814289D92068083050E8001F21F022
:1029F000805140E80012002AF5D112482067216872
:102A000051E8000F40F0200041E80002002AF6D112
:102A100073E7E066216851E8000F20F0100041E8FC
:102A20000002002AF6D12068C169C943C90601D451
:102A300010210162B4F85C102046FFF7AEF8C7E73A
:102A4000FEFFFFEF312800082DE9F0410446016840
:102A500080682269E3691043626900251A431043C4
:102A6000DFF82CC20A688B4B1A4002430A602068C8
:102A70004168E26821F44051114341602168A06936
:102A8000614501D0226A10438A68834B1A40024391
:102A90008A602068C16A626A21F00F011143C16235
:102AA0007E4923687E488B420DD1D0F8880010F013
:102AB000030006D0012855D0022842D003283FD178
:102AC00052E001203DE077498B420BD1D0F88800DD
:102AD00010F00C0035D0042833D0082840D00C2842
:102AE0002ED141E070498B420BD1D0F8880010F014
:102AF000300026D0102835D0202831D030281FD1E2
:102B000032E06A498B420BD1D0F8880010F0C00047
:102B100017D0402826D0802822D0C02810D123E00A
:102B200063450DD1D0F8880010F4406009D0B0F5AD
:102B3000806F17D0B0F5006F12D0B0F5406F13D092
:102B400010205B495B4F00264FF4004263453BD1A8
:102B500060B1022813D004280BD0082872D10DE0F0
:102B60000220EEE70420ECE70820EAE7FEF782FD0A
:102B700001E0FEF7A3FD010001D17CE01146606A8F
:102B800037F810206768B1FBF2F007EB4703834288
:102B900070D8B0EB073F6DD8002308461946FDF703
:102BA00037FB090241EA10610202780810187141EE
:102BB0003A460023FDF72CFB3F4AA0F540719142B5
:102BC00058D82168C86056E0E3694FF6EF78934221
:102BD0002CD109284ED2DFE800F00508114D0D4D2B
:102BE0004D4D1000FEF746FD01E0FEF755FD0100DA
:102BF00004D140E0FEF762FDF9E71146606A37F85C
:102C00001000B1FBF0F04100606801EB5001B1FB36
:102C1000F0F0A0F1100141452CD84FF6F0710140C1
:102C2000C0F3420001432068C16024E0092821D29A
:102C3000DFE800F0050912200E2020201100FEF729
:102C400019FD02E016E0FEF727FD010004D112E0B5
:102C5000FEF734FDF9E71146606A37F81000B1FB62
:102C6000F0F1606801EB5001B1FBF0F0A0F1100150
:102C700041450AD901250120A4F86A0024F8680F0B
:102C80002846A660E660BDE8F08180B299E70000C2
:102C900000800040F369FFCFFFF4FF1100380140CE
:102CA000001002400044004000480040004C00403A
:102CB0000024F400D63B0008FFFC0F0070B58165CE
:102CC000A0F85C20A0F85E200021016783684FF423
:102CD0008055FF24AB4204D10369FBB940F2FF13D6
:102CE00022E07F26C3B1B3F1805F1AD0A0F8601054
:102CF000C0F88C102223C0F888300368083353E8EA
:102D0000004F44F0010443E80046002EF5D1436E25
:102D1000B3F1005F0ED032E0036943B9A0F8604020
:102D2000E6E703691BB13F23A0F86030E0E7A0F8B5
:102D30006060DDE7B0F86830934220D88268AA422C
:102D400001D10269CAB11F4A026780F88010016987
:102D500041B1026852E8001F41F4807142E800135B
:102D6000002BF6D10168083151E8002F42F0805263
:102D700041E80023002BF5D121E0134AE4E7826803
:102D8000AA4201D102697AB1104A026780F8801024
:102D9000016959B1026852E8001F41F4907142E89C
:102DA0000013002BF6D10AE0094AEEE7026852E868
:102DB000001F41F0200142E80013002BF6D1002053
:102DC00070BD0000D5280008BD2600083128000885
:102DD000192600082DE9F0479A4617460E46044684
:102DE0004FF000094FF02008089D4AE0681C48D0C9
:102DF000FEF700F9A0EB0A00A8422AD84DB32068DC
:102E0000016849073DD5C069C043000539D4216830
:102E10004FF400600862206850E8001F21F4D07170
:102E200040E80012002AF6D12068083050E8001F60
:102E300021F0010140E80012002AF5D144F8848F06
:102E4000C4F80480C4F8088004F8049C0320BDE89A
:102E5000F087216851E8000F20F4D07041E80002AB
:102E6000002AF6D12068083050E8001F21F0010147
:102E700040E80012002AF5D144F8848FC4F8048099
:102E8000E2E72068C06936EA000004D00020B842BA
:102E9000ACD00020DBE70120F9E700000148FEF795
:102EA00009BF0000A4050020FEE700000FB4054B99
:102EB00010B503A9044A029800F0EEF810BC5DF8C2
:102EC00014FB0000C9370008280000200907090E7C
:102ED000002804DB00F1E02080F80014704700F0C7
:102EE0000F0000F1E02080F8141D70470048704783
:102EF0003400002002E008C8121F08C1002AFAD1DD
:102F000070477047002001E001C1121F002AFBD169
:102F1000704700002DE9FF5F82B00021DDE9043039
:102F2000020DDDF840B0034318D044F61050A2F271
:102F3000FF3242431514119801281FD0A5EB0B0056
:102F4000401C5FEA000A4FF000064E4FDFF8389150
:102F5000B046504615D5CAF1000413E0119801247B
:102F60004AA3012801D16FEA0B010298119AC0E926
:102F70000031C0E9024206B0BDE8F09FCBF100008D
:102F8000DFE704460021404A491842EB0450CDE9EE
:102F9000001012E0E00707D032463B464046494663
:102FA000FDF7E9FA8046894632463B461046194607
:102FB000FDF7E1FA06460F466410002CEAD1DDE980
:102FC0000401DDE90023BAF1000F06DAFDF7D3FAB8
:102FD00042464B46FDF7CFFA05E0FDF73EFB424681
:102FE0004B46FDF73AFB04460E460022284BFDF700
:102FF000BBFB03D84FF0FF30014607E00022254B12
:1030000020463146FDF710FAFDF796FB102409E043
:10301000002C0ADB0A220023FDF7FAF8039B30326A
:103020001A55641E50EA0102F2D1641C039AC4F1DD
:1030300011031444119A012A03D0012208430DD12F
:103040000AE0084304D000204FF0110B119072E702
:10305000A3EB0B056D1E0DE05B4504DD4FF0000298
:1030600005F1010504E003DA4FF00002A5F10105C6
:10307000002AECD002981199C0E90231C0E900455C
:1030800079E70000000014400000F03F300000002D
:103090000000F0430000E03F2DE9FF4F95B09B4654
:1030A0008946064600250FE2252877D100242746C9
:1030B000F84A0121059400E0044316F8013F203B43
:1030C00001FA03F01042F7D130782A2811D06FF0BE
:1030D0002F033078A0F13002092A16D8059A44F05F
:1030E000020402EB820203EB42021044761C0590BC
:1030F000EFE759F8042B0592002A03DA504244F412
:103100000054059044F00204761C30782E2816D125
:1031100016F8010F44F004042A280DD06FF02F0296
:103120003078A0F13003092B09D807EB870302EBB5
:103130004303C718761CF3E759F8047B761C3078F4
:103140006C280FD006DC4C2817D068280DD06A28D0
:1031500014D104E0742810D07A280FD10DE044F483
:1031600000140AE044F4801401E044F4401472783E
:10317000824202D104F58014761C761C30786628D1
:103180000BD013DC582877D009DC002875D04528EF
:10319000F6D04628F4D047281AD19DE118E06328DC
:1031A00035D0642879D0652812D195E1702873D084
:1031B00008DC6728F1D069286FD06E280DD06F2801
:1031C00006D1B5E073282CD0752875D0782874D036
:1031D0005A46179990476D1C75E1C4F302500228B6
:1031E00009D003280DD0D9F8001004280DD00D60A7
:1031F00009F1040967E1D9F80010EA17C1E90052A2
:10320000F6E7D9F800100D80F2E70D70F0E719F835
:10321000041B8DF8001000208DF80100EA46012003
:1032200003E059F804AB4FF0FF3061074FF00001A5
:1032300002D40DE008F101018846B9420FDA804559
:10324000F8DB1AF808100029F4D108E008F10101B0
:1032500088468142FADB1AF808100029F6D1059851
:103260005B46A0EB080721463846179A00F094FA0F
:10327000284400EB080507E04DE029E10DE01AF8CD
:10328000010B5A4617999047B8F10108F7D25B46EF
:1032900021463846179A13E142E00A220092C4F30D
:1032A00002524FF0000A022A08D059F804CB032A30
:1032B0004FEAEC710AD00DE029E02AE009F107019C
:1032C00021F00702F2E802C1914609E00FFA8CFCF6
:1032D0004FEAEC71042A03D14FFA8CFC4FEAEC71EF
:1032E000002907DA0A460021DCF1000C61EB02013B
:1032F0002D2202E0220504D52B228DF80420012284
:1033000003E0E20701D02022F7E7904659E00A21C6
:1033100002E010220DE010214FF0000A00910BE0B6
:1033200010224FF0000A44F004040827009203E042
:1033300008224FF0000A0092C4F30252022A05D07C
:1033400059F804CB0021032A08D009E009F107014C
:1033500021F00702F2E802C1914605E01FFA8CFC59
:10336000042A01D10CF0FF0C4FF00008220728D5E9
:10337000702806D0009B83F0100353EA0A0305D09F
:103380000EE040228DF80420012208E05CEA0102F0
:1033900006D030228DF804208DF8050002229046D8
:1033A000009B83F0080353EA0A030AD15CEA010296
:1033B00001D1620705D530228DF804204FF00108B5
:1033C0007F1E582804D034A003900EA802900DE070
:1033D00036A0F9E753466046009AFCF719FF844689
:1033E0000398825C0298401E029002705CEA010021
:1033F000F0D1029806A9081A00F1200A600702D548
:1034000024F4803400E00127574502DDA7EB0A00D1
:1034100000E0002000EB0A01009005984144401AAA
:103420000590E00306D45B462146179A059800F004
:10343000B3F90544002706E001A85A46C05D179974
:1034400090476D1C7F1C4745F6DBE0030CD55B46BF
:103450002146179A059800F09FF9054404E03020B2
:103460005A46179990476D1C0099481E00900029F4
:10347000F5DC08E0029802995A460078491C02914E
:10348000179990476D1CBAF10001AAF1010AF1DC0D
:1034900065E1000009280100303132333435363718
:1034A0003839616263646566000000003031323390
:1034B0003435363738394142434445460000000030
:1034C00000F058F90544761C307800287FF4ECAD04
:1034D00019B02846BDE8F08F620700D4062709F12D
:1034E000070222F0070CFCE80223E14603F0004843
:1034F0005FEA080C02D00FF2702C0DE05FEA045C6A
:1035000002D50FF2682C07E05FEAC47C02D00FF20C
:10351000602C01E0AFF2700C4FF0FF3823F0004355
:10352000CDF850C065280CD006DC452809D04628C7
:103530001DD047283DD13DE0662818D067287ED1B0
:1035400038E00021112F01DB112000E0781CCDE9CB
:10355000000106A90EA8FFF7DDFCDDE90F010E9AB8
:1035600003910021009207F1010A04914DE04FF010
:1035700000400097CDE9011006A90EA8FFF7CAFC8C
:10358000DDE90F0203920E9B11990022DDF80CA0D9
:103590000093049211B9791C00EB010AB7EB0A0001
:1035A00004D4C0F1FF3007F1010A0490AAEB070030
:1035B000019044E0012F00DA01270021112F01DDE5
:1035C000112000E03846CDE9000106A90EA8FFF75A
:1035D000A1FCDDE90F010E9A0391002104910092F4
:1035E000BA4621070CD40399514500DA8A46BAF14C
:1035F000010F05DD009AAAF10101515C302908D0C4
:10360000B84202DA10F1040F06DA0121CDE9011007
:1036100015E0AAF10101E9E7002805DC049901445D
:103620000491AAEB000102E0411C514500DD8A46ED
:103630000499401A401C01904FF00040029020076E
:1036400004D40198504501DBCDF8048000208DF8AA
:103650004F0002980DF14F07B0F1004F25D02B20FD
:103660000E9002984FF0020800280CDA40420290B7
:103670002D200E9007E00A210298FCF768FE3031F9
:10368000029007F8011DB8F10001A8F10108F2DC71
:1036900002980028EFD1791E0E980870307800F05B
:1036A000200040F0450007F8020D12A8C01B00F1F1
:1036B00007081498007800B1012000EB0A01019876
:1036C00001EBE07105984144401A401E0590E0036B
:1036D00006D45B462146179A059800F05DF805442C
:1036E0001498007818B15A46179990476D1CE0035A
:1036F00024D55B462146179A059800F04DF80544FD
:103700001CE00498002807DBDDE90301884203DDA3
:103710000098405C179901E0179930205A4690476D
:10372000049805F10105401C04900198401E019089
:1037300004D12E205A46179990476D1CBAF100010A
:10374000AAF1010ADDDC05E017F8010B5A461799CA
:1037500090476D1CB8F10001A8F10108F4DC5B464C
:103760002146179A0598ABE62D0000002B000000BB
:10377000200000002DE9F041044600251E461746B2
:10378000880404D405E039462020B0476D1C641E2F
:10379000F9D52846BDE8F0812DE9F0410446002521
:1037A0001E469046C80301D5302700E02027880434
:1037B00004D505E041463846B0476D1C641EF9D576
:1037C0002846BDE8F081000013B54FF6FF730122D3
:1037D00069460248FEF7B8FC00981CBDA40500200D
:1037E00010B5002821D0114B0022001F196803E0FA
:1037F000814203D80A4649680029F9D152B11368B9
:10380000841A9C4204D1006818441060104602E0FB
:10381000506000E0186039B102680B1A934203D17E
:103820000B681A4402604968416010BD2C000020FA
:103830000FB42DE9F05F1F462DED048B12AB002570
:1038400093E8000E704EDDF85C800EE005EB45005D
:1038500000EBC50108EB8104606A28B9611D0DF118
:103860003D00FCF73DFD50B16D1C30688542EDDB3D
:103870000020BDEC048BBDE8F01F5DF814FB05EBE8
:10388000450000EBC50108EB810160A0FCF728FDB5
:103890000025B7EE009ADFED5F9AB3EE088AF3EEEB
:1038A0000E8A4FF0010800285FD021465AA0FCF78D
:1038B00017FD0028DCD1E0682169381A00EE100AF3
:1038C000A9EB01006169F8EEC01A00EE100AAAEB3C
:1038D0000100A169F8EEC00A00EE100AABEB01008E
:1038E000E169B8EEC01A00EE100A1598401A02EE0F
:1038F000100A1698216AB8EEC22A401A02EE900AFF
:10390000B8EEC00AF8EEE22A32EE222AB5EEC02A5C
:10391000F1EE10FA01DD30EE090A61EEA91A60EE4F
:10392000A80AE560256161EE881A6561A561E56117
:1039300040EE881AC4E908582570657141EE081AEE
:10394000D6ED020A31EE800A20EE200A86ED040A46
:1039500010EE100AFCF7E8FC41EC100B30A053EC21
:10396000102BFFF7A3FA012083E7E0682169381ADA
:1039700000EE100AA9EB01006169F8EEC01A00EE32
:10398000100AAAEB0100A169F8EEC00A00EE100AC5
:10399000ABEB0100E169B8EEC01A00EE100A159811
:1039A000401A02EE100A1698216AB8EEC22A401A8E
:1039B00002EE900AB8EEC00AF8EEE22A32EE222AAF
:1039C000B5EEC02AF1EE10FA01DD30EE090A61EE23
:1039D000A91A60EEA80A61EE881A40EE881AD6EDA0
:1039E000030A41EE081A31EE800A20EE200A86ED25
:1039F000040AE56025616561A561E561C4E90858CF
:103A0000257065713069A5E714000020434E4252CD
:103A1000000000000080B643564E425200000000F5
:103A200048616E646C653A252E32660D0A0000000E
:103A300001EB410202EBC10100EB8100406A012869
:103A400000D00020704700008AB0FDF7E1FAFEF7D1
:103A5000BBFCFEF715FCFEF731FC16221349144897
:103A6000FEF72EFB1348FEF7EDFB134C04F160004C
:103A700007C88DE8070004F1540103A80EC9FEF73A
:103A8000D1FB4834684694E80E00FEF7BDFB0B4CB2
:103A9000002520680128FCD100F048F816220349CF
:103AA0000348FEF70DFB2560F3E700003800002017
:103AB000A40500202004002038050020000000207C
:103AC000F0B50B30154D20F007010024144A0FE02B
:103AD00003688B420BD38B4205D95E1A43184768A3
:103AE000C3E9006700E04368136002C004E0021D00
:103AF00010680028ECD12046002802D1286808B1BF
:103B00000020F0BD064A07481060074A121A22F04A
:103B10000702C0E9002401202860D7E73000002018
:103B20002C0000203C0600203808002030B589B069
:103B30001448FCF713FF1448144C05901422211D5F
:103B40006846FCF796FB124D286806906968079155
:103B50002A89ADF820202368089AFFF769FE01281A
:103B60000DD0182221466846FCF783FB29686A6855
:103B70002889ADF820000448089BFEF7D5FB09B062
:103B800030BD000038000020200400208C050020FB
:103B9000800500202DE9F04114460D46070018D09D
:103BA000FCF797FB002D14DB854212DA002C10DDA8
:103BB000291981420DDC601CFFF782FF060008D046
:103BC00079192246FCF779FB002030553046BDE8D4
:103BD000F0810020FBE7010002000400060008005D
:103BE0000A000C00100020004000800000010101CC
:103BF000010307010000080402040801010100009C
:103C0000000000000000010203040607080900008C
:103C1000000001020304004040404040404040405A
:103C2000414141414140404040404040404040408F
:103C300040404040404040050202020202020202AF
:103C40000202020202020220202020202020202046
:103C500020020202020202029090909090901010B6
:103C60001010101010101010101010101010101054
:103C700010100202020202028888888888880808D8
:103C800008080808080808080808080808080808B4
:103C90000808020202024000173C0008BC3C000871
:103CA0000000002038000000F42E0008F43C00085A
:103CB00038000020000C0000042F00080000000065
:103CC0001000000001000000000000000024F400CB
:103CD0000800000005000000000060400000604097
:103CE00000000000000000000000000000000000D4
:043CF00000000000D0
:04000005080001D915
:00000001FF
